{
  "contractName": "DappToken",
  "abi": [
    {
      "inputs": [
        {
          "internalType": "uint256",
          "name": "_initialSupply",
          "type": "uint256"
        }
      ],
      "stateMutability": "nonpayable",
      "type": "constructor"
    },
    {
      "inputs": [
        {
          "internalType": "address",
          "name": "",
          "type": "address"
        }
      ],
      "name": "balanceOf",
      "outputs": [
        {
          "internalType": "uint256",
          "name": "",
          "type": "uint256"
        }
      ],
      "stateMutability": "view",
      "type": "function"
    },
    {
      "inputs": [],
      "name": "name",
      "outputs": [
        {
          "internalType": "string",
          "name": "",
          "type": "string"
        }
      ],
      "stateMutability": "view",
      "type": "function"
    },
    {
      "inputs": [],
      "name": "symbol",
      "outputs": [
        {
          "internalType": "string",
          "name": "",
          "type": "string"
        }
      ],
      "stateMutability": "view",
      "type": "function"
    },
    {
      "inputs": [],
      "name": "totalSupply",
      "outputs": [
        {
          "internalType": "uint256",
          "name": "",
          "type": "uint256"
        }
      ],
      "stateMutability": "view",
      "type": "function"
    },
    {
      "inputs": [
        {
          "internalType": "address",
          "name": "_to",
          "type": "address"
        },
        {
          "internalType": "uint256",
          "name": "_value",
          "type": "uint256"
        }
      ],
      "name": "transfer",
      "outputs": [
        {
          "internalType": "bool",
          "name": "success",
          "type": "bool"
        }
      ],
      "stateMutability": "nonpayable",
      "type": "function"
    }
  ],
  "bytecode": "0x60806040526040518060400160405280600a81526020017f537465696e6e6567656e000000000000000000000000000000000000000000008152506000908051906020019061004f92919061011b565b506040518060400160405280600581526020017f535445494e0000000000000000000000000000000000000000000000000000008152506001908051906020019061009b92919061011b565b503480156100a857600080fd5b5060405161095738038061095783398181016040528101906100ca91906101f9565b8060028190555080600360003373ffffffffffffffffffffffffffffffffffffffff1673ffffffffffffffffffffffffffffffffffffffff1681526020019081526020016000208190555050610287565b82805461012790610255565b90600052602060002090601f0160209004810192826101495760008555610190565b82601f1061016257805160ff1916838001178555610190565b82800160010185558215610190579182015b8281111561018f578251825591602001919060010190610174565b5b50905061019d91906101a1565b5090565b5b808211156101ba5760008160009055506001016101a2565b5090565b600080fd5b6000819050919050565b6101d6816101c3565b81146101e157600080fd5b50565b6000815190506101f3816101cd565b92915050565b60006020828403121561020f5761020e6101be565b5b600061021d848285016101e4565b91505092915050565b7f4e487b7100000000000000000000000000000000000000000000000000000000600052602260045260246000fd5b6000600282049050600182168061026d57607f821691505b6020821081141561028157610280610226565b5b50919050565b6106c1806102966000396000f3fe608060405234801561001057600080fd5b50600436106100575760003560e01c806306fdde031461005c57806318160ddd1461007a57806370a082311461009857806395d89b41146100c8578063a9059cbb146100e6575b600080fd5b610064610116565b60405161007191906103e9565b60405180910390f35b6100826101a4565b60405161008f9190610424565b60405180910390f35b6100b260048036038101906100ad91906104a2565b6101aa565b6040516100bf9190610424565b60405180910390f35b6100d06101c2565b6040516100dd91906103e9565b60405180910390f35b61010060048036038101906100fb91906104fb565b610250565b60405161010d9190610556565b60405180910390f35b60008054610123906105a0565b80601f016020809104026020016040519081016040528092919081815260200182805461014f906105a0565b801561019c5780601f106101715761010080835404028352916020019161019c565b820191906000526020600020905b81548152906001019060200180831161017f57829003601f168201915b505050505081565b60025481565b60036020528060005260406000206000915090505481565b600180546101cf906105a0565b80601f01602080910402602001604051908101604052809291908181526020018280546101fb906105a0565b80156102485780601f1061021d57610100808354040283529160200191610248565b820191906000526020600020905b81548152906001019060200180831161022b57829003601f168201915b505050505081565b600081600360003373ffffffffffffffffffffffffffffffffffffffff1673ffffffffffffffffffffffffffffffffffffffff16815260200190815260200160002054101561029e57600080fd5b81600360003373ffffffffffffffffffffffffffffffffffffffff1673ffffffffffffffffffffffffffffffffffffffff16815260200190815260200160002060008282546102ed9190610601565b9250508190555081600360008573ffffffffffffffffffffffffffffffffffffffff1673ffffffffffffffffffffffffffffffffffffffff16815260200190815260200160002060008282546103439190610635565b9250508190555092915050565b600081519050919050565b600082825260208201905092915050565b60005b8381101561038a57808201518184015260208101905061036f565b83811115610399576000848401525b50505050565b6000601f19601f8301169050919050565b60006103bb82610350565b6103c5818561035b565b93506103d581856020860161036c565b6103de8161039f565b840191505092915050565b6000602082019050818103600083015261040381846103b0565b905092915050565b6000819050919050565b61041e8161040b565b82525050565b60006020820190506104396000830184610415565b92915050565b600080fd5b600073ffffffffffffffffffffffffffffffffffffffff82169050919050565b600061046f82610444565b9050919050565b61047f81610464565b811461048a57600080fd5b50565b60008135905061049c81610476565b92915050565b6000602082840312156104b8576104b761043f565b5b60006104c68482850161048d565b91505092915050565b6104d88161040b565b81146104e357600080fd5b50565b6000813590506104f5816104cf565b92915050565b600080604083850312156105125761051161043f565b5b60006105208582860161048d565b9250506020610531858286016104e6565b9150509250929050565b60008115159050919050565b6105508161053b565b82525050565b600060208201905061056b6000830184610547565b92915050565b7f4e487b7100000000000000000000000000000000000000000000000000000000600052602260045260246000fd5b600060028204905060018216806105b857607f821691505b602082108114156105cc576105cb610571565b5b50919050565b7f4e487b7100000000000000000000000000000000000000000000000000000000600052601160045260246000fd5b600061060c8261040b565b91506106178361040b565b92508282101561062a576106296105d2565b5b828203905092915050565b60006106408261040b565b915061064b8361040b565b9250827fffffffffffffffffffffffffffffffffffffffffffffffffffffffffffffffff038211156106805761067f6105d2565b5b82820190509291505056fea26469706673582212202d6f63bd4ed10ead164f3b2ee35741cf1132ef27521b9c07d77203ac0d35dbb964736f6c634300080b0033",
  "immutableReferences": {},
  "source": "// SPDX-License-Identifier: MIT\r\npragma solidity ^0.8.0;\r\n\r\ncontract DappToken {\r\n    string public name = \"Steinnegen\";\r\n\r\n    string public symbol = \"STEIN\";\r\n\r\n    uint256 public totalSupply;\r\n\r\n    mapping(address => uint256) public balanceOf;\r\n\r\n    constructor(uint256 _initialSupply) {\r\n        totalSupply = _initialSupply;\r\n        balanceOf[msg.sender] = _initialSupply;\r\n    }\r\n\r\n    //Creating Transfer form methods\r\n    function transfer(address _to, uint256 _value)\r\n        public\r\n        returns (bool success)\r\n    {\r\n        require(balanceOf[msg.sender] >= _value);\r\n\r\n        balanceOf[msg.sender] -= _value;\r\n        balanceOf[_to] += _value;\r\n    }\r\n}\r\n",
  "sourcePath": "E:\\Development\\_Personal\\Udemy\\Ethereum & Solidity\\ERC-20\\Coin\\contracts\\DappToken.sol",
  "compiler": {
    "name": "solc",
    "version": "0.8.11+commit.d7f03943.Emscripten.clang"
  },
  "schemaVersion": "3.4.4",
  "updatedAt": "2022-02-08T20:00:35.232Z",
  "devdoc": {
    "kind": "dev",
    "methods": {},
    "version": 1
  },
  "userdoc": {
    "kind": "user",
    "methods": {},
    "version": 1
  }
}